{
  "contractName": "Consorcio",
  "abi": [
    {
      "constant": true,
      "inputs": [
        {
          "name": "",
          "type": "uint256"
        }
      ],
      "name": "socios",
      "outputs": [
        {
          "name": "socio",
          "type": "address"
        },
        {
          "name": "nombre",
          "type": "string"
        },
        {
          "name": "socioDesde",
          "type": "uint256"
        }
      ],
      "payable": false,
      "stateMutability": "view",
      "type": "function"
    },
    {
      "constant": true,
      "inputs": [],
      "name": "cantidadPropuestas",
      "outputs": [
        {
          "name": "",
          "type": "uint256"
        }
      ],
      "payable": false,
      "stateMutability": "view",
      "type": "function"
    },
    {
      "constant": true,
      "inputs": [
        {
          "name": "",
          "type": "uint256"
        }
      ],
      "name": "propuestas",
      "outputs": [
        {
          "name": "nombre",
          "type": "string"
        },
        {
          "name": "descripcion",
          "type": "string"
        },
        {
          "name": "fechaEjecucion",
          "type": "uint256"
        },
        {
          "name": "realizada",
          "type": "bool"
        },
        {
          "name": "aprobada",
          "type": "bool"
        },
        {
          "name": "cantidadVotos",
          "type": "uint256"
        },
        {
          "name": "votosAFavor",
          "type": "uint256"
        }
      ],
      "payable": false,
      "stateMutability": "view",
      "type": "function"
    },
    {
      "constant": true,
      "inputs": [
        {
          "name": "",
          "type": "address"
        }
      ],
      "name": "idSocio",
      "outputs": [
        {
          "name": "",
          "type": "uint256"
        }
      ],
      "payable": false,
      "stateMutability": "view",
      "type": "function"
    },
    {
      "constant": true,
      "inputs": [],
      "name": "mayoria",
      "outputs": [
        {
          "name": "",
          "type": "uint256"
        }
      ],
      "payable": false,
      "stateMutability": "view",
      "type": "function"
    },
    {
      "constant": true,
      "inputs": [],
      "name": "plazoMinVotacion",
      "outputs": [
        {
          "name": "",
          "type": "uint256"
        }
      ],
      "payable": false,
      "stateMutability": "view",
      "type": "function"
    },
    {
      "constant": true,
      "inputs": [],
      "name": "quorumMinimo",
      "outputs": [
        {
          "name": "",
          "type": "uint256"
        }
      ],
      "payable": false,
      "stateMutability": "view",
      "type": "function"
    },
    {
      "inputs": [],
      "payable": false,
      "stateMutability": "nonpayable",
      "type": "constructor"
    },
    {
      "anonymous": false,
      "inputs": [
        {
          "indexed": false,
          "name": "idPropuesta",
          "type": "uint256"
        },
        {
          "indexed": false,
          "name": "nombre",
          "type": "string"
        },
        {
          "indexed": false,
          "name": "descripcion",
          "type": "string"
        }
      ],
      "name": "PropuestaAgregada",
      "type": "event"
    },
    {
      "anonymous": false,
      "inputs": [
        {
          "indexed": false,
          "name": "idPropuesta",
          "type": "uint256"
        },
        {
          "indexed": false,
          "name": "posicion",
          "type": "bool"
        },
        {
          "indexed": false,
          "name": "votante",
          "type": "address"
        }
      ],
      "name": "Votod",
      "type": "event"
    },
    {
      "anonymous": false,
      "inputs": [
        {
          "indexed": false,
          "name": "idPropuesta",
          "type": "uint256"
        },
        {
          "indexed": false,
          "name": "votosAFavor",
          "type": "uint256"
        },
        {
          "indexed": false,
          "name": "quorum",
          "type": "uint256"
        },
        {
          "indexed": false,
          "name": "activa",
          "type": "bool"
        }
      ],
      "name": "PropuestaTerminada",
      "type": "event"
    },
    {
      "anonymous": false,
      "inputs": [
        {
          "indexed": false,
          "name": "socio",
          "type": "address"
        },
        {
          "indexed": false,
          "name": "esSocio",
          "type": "bool"
        }
      ],
      "name": "cambioEstado",
      "type": "event"
    },
    {
      "constant": false,
      "inputs": [
        {
          "name": "direccion",
          "type": "address"
        },
        {
          "name": "nombre",
          "type": "string"
        }
      ],
      "name": "agregarSocio",
      "outputs": [],
      "payable": false,
      "stateMutability": "nonpayable",
      "type": "function"
    },
    {
      "constant": false,
      "inputs": [
        {
          "name": "direccion",
          "type": "address"
        }
      ],
      "name": "eliminarSocio",
      "outputs": [],
      "payable": false,
      "stateMutability": "nonpayable",
      "type": "function"
    },
    {
      "constant": false,
      "inputs": [
        {
          "name": "nombrePropuesta",
          "type": "string"
        },
        {
          "name": "descripcionPropuesta",
          "type": "string"
        }
      ],
      "name": "agregarPropuesta",
      "outputs": [
        {
          "name": "idPropuesta",
          "type": "uint256"
        }
      ],
      "payable": false,
      "stateMutability": "nonpayable",
      "type": "function"
    },
    {
      "constant": false,
      "inputs": [
        {
          "name": "idPropuesta",
          "type": "uint256"
        },
        {
          "name": "apoyaPropuesta",
          "type": "bool"
        }
      ],
      "name": "votar",
      "outputs": [
        {
          "name": "idVoto",
          "type": "uint256"
        }
      ],
      "payable": false,
      "stateMutability": "nonpayable",
      "type": "function"
    },
    {
      "constant": false,
      "inputs": [
        {
          "name": "idPropuesta",
          "type": "uint256"
        }
      ],
      "name": "ejecutarPropuesta",
      "outputs": [],
      "payable": false,
      "stateMutability": "nonpayable",
      "type": "function"
    },
    {
      "constant": true,
      "inputs": [],
      "name": "getSocios",
      "outputs": [
        {
          "name": "",
          "type": "bytes32[10]"
        }
      ],
      "payable": false,
      "stateMutability": "view",
      "type": "function"
    }
  ],
  "bytecode": "0x6080604052604b60005560326001556203f48060025534801561002157600080fd5b506117cc806100316000396000f3006080604052600436106100c5576000357c0100000000000000000000000000000000000000000000000000000000900463ffffffff1680631fc3b334146100ca57806328962d4e146101aa5780634f173a3b146101f757806354b2638c146102ba5780635efe9a75146102e75780636097e216146103125780636149e0091461044f578063655ffbfd146104a25780636e9de3c51461052b5780637553d38d146105825780638482d422146105ad57806391ec7e47146105f0578063bda599311461061b575b600080fd5b3480156100d657600080fd5b506100f560048036038101908080359060200190929190505050610646565b604051808473ffffffffffffffffffffffffffffffffffffffff1673ffffffffffffffffffffffffffffffffffffffff16815260200180602001838152602001828103825284818151815260200191508051906020019080838360005b8381101561016d578082015181840152602081019050610152565b50505050905090810190601f16801561019a5780820380516001836020036101000a031916815260200191505b5094505050505060405180910390f35b3480156101b657600080fd5b506101e160048036038101908080359060200190929190803515159060200190929190505050610737565b6040518082815260200191505060405180910390f35b34801561020357600080fd5b506102a4600480360381019080803590602001908201803590602001908080601f0160208091040260200160405190810160405280939291908181526020018383808284378201915050505050509192919290803590602001908201803590602001908080601f0160208091040260200160405190810160405280939291908181526020018383808284378201915050505050509192919290505050610920565b6040518082815260200191505060405180910390f35b3480156102c657600080fd5b506102e560048036038101908080359060200190929190505050610b52565b005b3480156102f357600080fd5b506102fc610cc0565b6040518082815260200191505060405180910390f35b34801561031e57600080fd5b5061033d60048036038101908080359060200190929190505050610cc6565b604051808060200180602001888152602001871515151581526020018615151515815260200185815260200184815260200183810383528a818151815260200191508051906020019080838360005b838110156103a757808201518184015260208101905061038c565b50505050905090810190601f1680156103d45780820380516001836020036101000a031916815260200191505b50838103825289818151815260200191508051906020019080838360005b8381101561040d5780820151818401526020810190506103f2565b50505050905090810190601f16801561043a5780820380516001836020036101000a031916815260200191505b50995050505050505050505060405180910390f35b34801561045b57600080fd5b50610464610e61565b6040518082600a60200280838360005b8381101561048f578082015181840152602081019050610474565b5050505090500191505060405180910390f35b3480156104ae57600080fd5b50610529600480360381019080803573ffffffffffffffffffffffffffffffffffffffff169060200190929190803590602001908201803590602001908080601f0160208091040260200160405190810160405280939291908181526020018383808284378201915050505050509192919290505050610f7b565b005b34801561053757600080fd5b5061056c600480360381019080803573ffffffffffffffffffffffffffffffffffffffff16906020019092919050505061115d565b6040518082815260200191505060405180910390f35b34801561058e57600080fd5b50610597611175565b6040518082815260200191505060405180910390f35b3480156105b957600080fd5b506105ee600480360381019080803573ffffffffffffffffffffffffffffffffffffffff16906020019092919050505061117b565b005b3480156105fc57600080fd5b50610605611385565b6040518082815260200191505060405180910390f35b34801561062757600080fd5b5061063061138b565b6040518082815260200191505060405180910390f35b60068181548110151561065557fe5b90600052602060002090600302016000915090508060000160009054906101000a900473ffffffffffffffffffffffffffffffffffffffff1690806001018054600181600116156101000203166002900480601f0160208091040260200160405190810160405280929190818152602001828054600181600116156101000203166002900480156107275780601f106106fc57610100808354040283529160200191610727565b820191906000526020600020905b81548152906001019060200180831161070a57829003601f168201915b5050505050908060020154905083565b6000806000600560003373ffffffffffffffffffffffffffffffffffffffff1673ffffffffffffffffffffffffffffffffffffffff168152602001908152602001600020541415151561078957600080fd5b60038481548110151561079857fe5b906000526020600020906008020190508060070160003373ffffffffffffffffffffffffffffffffffffffff1673ffffffffffffffffffffffffffffffffffffffff16815260200190815260200160002060009054906101000a900460ff161580156108075750806002015442105b151561081257600080fd5b60018160070160003373ffffffffffffffffffffffffffffffffffffffff1673ffffffffffffffffffffffffffffffffffffffff16815260200190815260200160002060006101000a81548160ff0219169083151502179055508060040160008154809291906001019190505550821561089b5780600501600081548092919060010191905055505b7f5ebf8f474d60d10dcc921e7bd870eb989873e7c1e551936655860938ffe6c77984843360405180848152602001831515151581526020018273ffffffffffffffffffffffffffffffffffffffff1673ffffffffffffffffffffffffffffffffffffffff168152602001935050505060405180910390a1806004015491505092915050565b6000806000600560003373ffffffffffffffffffffffffffffffffffffffff1673ffffffffffffffffffffffffffffffffffffffff168152602001908152602001600020541415151561097257600080fd5b6003805480919060010161098691906113bc565b915060038281548110151561099757fe5b90600052602060002090600802019050838160000190805190602001906109bf9291906113ee565b50828160010190805190602001906109d89291906113ee565b50603c600254024201816002018190555060008160030160006101000a81548160ff02191690831515021790555060008160030160016101000a81548160ff021916908315150217905550600081600401819055507f0ae4de2b58ccbb58c17cbac9c1a7629635b20717b4ae623ac0cc006674053e2a828585604051808481526020018060200180602001838103835285818151815260200191508051906020019080838360005b83811015610a9b578082015181840152602081019050610a80565b50505050905090810190601f168015610ac85780820380516001836020036101000a031916815260200191505b50838103825284818151815260200191508051906020019080838360005b83811015610b01578082015181840152602081019050610ae6565b50505050905090810190601f168015610b2e5780820380516001836020036101000a031916815260200191505b509550505050505060405180910390a1600182016004819055508191505092915050565b6000806000600384815481101515610b6657fe5b906000526020600020906008020192506001606460005460068054905002811515610b8d57fe5b040191508260030160009054906101000a900460ff16158015610bb35750826002015442115b8015610bc3575081836004015410155b1515610bce57600080fd5b600160646001548402811515610be057fe5b04019050808360050154101515610c305760018360030160006101000a81548160ff02191690831515021790555060018360030160016101000a81548160ff021916908315150217905550610c4e565b60008360030160016101000a81548160ff0219169083151502179055505b7fefa1bf66a733455c3cc4fe6247a0580a3ed149c5c353b50a50cbf1276e74b80784846005015485600401548660030160019054906101000a900460ff16604051808581526020018481526020018381526020018215151515815260200194505050505060405180910390a150505050565b60045481565b600381815481101515610cd557fe5b9060005260206000209060080201600091509050806000018054600181600116156101000203166002900480601f016020809104026020016040519081016040528092919081815260200182805460018160011615610100020316600290048015610d815780601f10610d5657610100808354040283529160200191610d81565b820191906000526020600020905b815481529060010190602001808311610d6457829003601f168201915b505050505090806001018054600181600116156101000203166002900480601f016020809104026020016040519081016040528092919081815260200182805460018160011615610100020316600290048015610e1f5780601f10610df457610100808354040283529160200191610e1f565b820191906000526020600020905b815481529060010190602001808311610e0257829003601f168201915b5050505050908060020154908060030160009054906101000a900460ff16908060030160019054906101000a900460ff16908060040154908060050154905087565b610e6961146e565b610e7161146e565b60008090505b600680549050811015610f7357610f45600682815481101515610e9657fe5b90600052602060002090600302016001018054600181600116156101000203166002900480601f016020809104026020016040519081016040528092919081815260200182805460018160011615610100020316600290048015610f3b5780601f10610f1057610100808354040283529160200191610f3b565b820191906000526020600020905b815481529060010190602001808311610f1e57829003601f168201915b5050505050611391565b8282600a81101515610f5357fe5b602002019060001916908160001916815250508080600101915050610e77565b819250505090565b6000600560008473ffffffffffffffffffffffffffffffffffffffff1673ffffffffffffffffffffffffffffffffffffffff168152602001908152602001600020549050600081141561102857600680549050600560008573ffffffffffffffffffffffffffffffffffffffff1673ffffffffffffffffffffffffffffffffffffffff16815260200190815260200160002081905550600680548091906001016110259190611492565b90505b6060604051908101604052808473ffffffffffffffffffffffffffffffffffffffff1681526020018381526020014281525060068281548110151561106957fe5b906000526020600020906003020160008201518160000160006101000a81548173ffffffffffffffffffffffffffffffffffffffff021916908373ffffffffffffffffffffffffffffffffffffffff16021790555060208201518160010190805190602001906110da9291906114c4565b50604082015181600201559050507f27ed3f2b7dfdc95fbfe985d9149fe9ab34270db5f0ab5371faa0f74c39bd5065836001604051808373ffffffffffffffffffffffffffffffffffffffff1673ffffffffffffffffffffffffffffffffffffffff168152602001821515151581526020019250505060405180910390a1505050565b60056020528060005260406000206000915090505481565b60015481565b600080600560008473ffffffffffffffffffffffffffffffffffffffff1673ffffffffffffffffffffffffffffffffffffffff16815260200190815260200160002054141515156111cb57600080fd5b600560008373ffffffffffffffffffffffffffffffffffffffff1673ffffffffffffffffffffffffffffffffffffffff1681526020019081526020016000205490505b6001600680549050038110156113045760066001820181548110151561123057fe5b906000526020600020906003020160068281548110151561124d57fe5b90600052602060002090600302016000820160009054906101000a900473ffffffffffffffffffffffffffffffffffffffff168160000160006101000a81548173ffffffffffffffffffffffffffffffffffffffff021916908373ffffffffffffffffffffffffffffffffffffffff160217905550600182018160010190805460018160011615610100020316600290046112e9929190611544565b5060028201548160020155905050808060010191505061120e565b600660016006805490500381548110151561131b57fe5b9060005260206000209060030201600080820160006101000a81549073ffffffffffffffffffffffffffffffffffffffff021916905560018201600061136191906115cb565b6002820160009055505060068054809190600190036113809190611492565b505050565b60025481565b60005481565b600060608290506000815114156113ae57600060010291506113b6565b602083015191505b50919050565b8154818355818111156113e9576008028160080283600052602060002091820191016113e89190611613565b5b505050565b828054600181600116156101000203166002900490600052602060002090601f016020900481019282601f1061142f57805160ff191683800117855561145d565b8280016001018555821561145d579182015b8281111561145c578251825591602001919060010190611441565b5b50905061146a91906116a2565b5090565b61014060405190810160405280600a90602082028038833980820191505090505090565b8154818355818111156114bf576003028160030283600052602060002091820191016114be91906116c7565b5b505050565b828054600181600116156101000203166002900490600052602060002090601f016020900481019282601f1061150557805160ff1916838001178555611533565b82800160010185558215611533579182015b82811115611532578251825591602001919060010190611517565b5b50905061154091906116a2565b5090565b828054600181600116156101000203166002900490600052602060002090601f016020900481019282601f1061157d57805485556115ba565b828001600101855582156115ba57600052602060002091601f016020900482015b828111156115b957825482559160010191906001019061159e565b5b5090506115c791906116a2565b5090565b50805460018160011615610100020316600290046000825580601f106115f15750611610565b601f01602090049060005260206000209081019061160f91906116a2565b5b50565b61169f91905b8082111561169b576000808201600061163291906115cb565b60018201600061164291906115cb565b60028201600090556003820160006101000a81549060ff02191690556003820160016101000a81549060ff0219169055600482016000905560058201600090556006820160006116929190611725565b50600801611619565b5090565b90565b6116c491905b808211156116c05760008160009055506001016116a8565b5090565b90565b61172291905b8082111561171e57600080820160006101000a81549073ffffffffffffffffffffffffffffffffffffffff021916905560018201600061170d91906115cb565b6002820160009055506003016116cd565b5090565b90565b50805460008255906000526020600020908101906117439190611746565b50565b61179d91905b8082111561179957600080820160006101000a81549060ff02191690556000820160016101000a81549073ffffffffffffffffffffffffffffffffffffffff02191690555060010161174c565b5090565b905600a165627a7a723058207c36b69d1031c0cef91680b24572c0614fc1b025e8d675ce648d465ce33779ce0029",
  "source": "pragma solidity ^0.4.16;\n\ncontract Consorcio {\n    // Variables y eventos\n    uint public quorumMinimo = 75; // en % de cantidad de socios\n    uint public mayoria = 50; // en % de total de votos\n    uint public plazoMinVotacion = 259200; // en minutos (86400 minutos = 1 dia)\n    Propuesta[] public propuestas;\n    uint public cantidadPropuestas;\n    mapping (address => uint) public idSocio;\n    Socio[] public socios;\n\n    event PropuestaAgregada(uint idPropuesta, string nombre, string descripcion);\n    event Votod(uint idPropuesta, bool posicion, address votante);\n    event PropuestaTerminada(uint idPropuesta, uint votosAFavor, uint quorum, bool activa);\n    event cambioEstado(address socio, bool esSocio);\n\n    struct Propuesta {\n        string nombre;\n        string descripcion;\n        uint fechaEjecucion; // La propuesta no se puede ejecutar antes de esta fecha (en minutos)\n        bool realizada;\n        bool aprobada;\n        uint cantidadVotos;\n        uint votosAFavor;\n        Voto[] votos;\n        mapping (address => bool) yaVotaron;\n    }\n\n    struct Socio {\n        address socio;\n        string nombre;\n        uint socioDesde;\n    }\n\n    struct Voto {\n        bool apoya;\n        address votante;\n    }\n\n    // Modificador para \"solo socios\"\n    modifier soloSocios {\n        require(idSocio[msg.sender] != 0);\n        _;\n    }\n\n    // Constructor\n    constructor() public {\n    }\n\n    // Agrega al socio \"nombreSocio\", con direccion \"direccion\" al Consorcio\n    function agregarSocio(address direccion, string nombre) public {\n        uint id = idSocio[direccion];\n        if (id == 0) {\n            idSocio[direccion] = socios.length;\n            id = socios.length++;\n        }\n\n        socios[id] = Socio({socio: direccion, socioDesde: now, nombre: nombre});\n        emit cambioEstado(direccion, true);\n    }\n\n    // Elimina al socio con direccion \"direccion\" del Consorcio\n    function eliminarSocio(address direccion) public {\n        require(idSocio[direccion] != 0);\n\n        for (uint i = idSocio[direccion]; i < socios.length-1; i++){\n            socios[i] = socios[i+1];\n        }\n        delete socios[socios.length-1];\n        socios.length--;\n    }\n\n    // Agregar propuesta \"nombrePropuesta\" con descripcion \"descripcionPropuesta\"\n    function agregarPropuesta(string nombrePropuesta, string descripcionPropuesta) soloSocios public\n        returns (uint idPropuesta)\n    {\n        idPropuesta = propuestas.length++;\n        Propuesta storage p = propuestas[idPropuesta];\n        p.nombre = nombrePropuesta;\n        p.descripcion = descripcionPropuesta;\n        p.fechaEjecucion = now + plazoMinVotacion * 1 minutes;\n        p.realizada = false;\n        p.aprobada = false;\n        p.cantidadVotos = 0;\n        emit PropuestaAgregada(idPropuesta, nombrePropuesta, descripcionPropuesta);\n        cantidadPropuestas = idPropuesta+1;\n\n        return idPropuesta;\n    }\n\n    // Votar por la propuesta \"idPropuesta\"\n    function votar(uint idPropuesta, bool apoyaPropuesta) soloSocios public returns (uint idVoto)\n    {\n        Propuesta storage p = propuestas[idPropuesta];\n        require(!p.yaVotaron[msg.sender] && now < p.fechaEjecucion);\n        p.yaVotaron[msg.sender] = true;\n        p.cantidadVotos++;\n        if (apoyaPropuesta) {\n            p.votosAFavor++;\n        }\n\n        emit Votod(idPropuesta, apoyaPropuesta, msg.sender);\n        return p.cantidadVotos;\n    }\n\n    // Ejecutar propuesta \"idPropuesta\" y realizarla si fue aprobada\n    function ejecutarPropuesta(uint idPropuesta) public {\n        Propuesta storage p = propuestas[idPropuesta];\n\n        uint cantidadMinimaVotos = (socios.length*quorumMinimo/100)+1;\n        require(!p.realizada && now > p.fechaEjecucion && p.cantidadVotos >= cantidadMinimaVotos);\n\n        uint votosMinimosParaAprobar = (cantidadMinimaVotos*mayoria/100)+1;\n        if (p.votosAFavor >= votosMinimosParaAprobar) {\n            // TODO ejecutar propuesta si es aprobada (depende del tipo de propuesta)\n\n            p.realizada = true;\n            p.aprobada = true;\n        } else {\n            p.aprobada = false;\n        }\n\n        emit PropuestaTerminada(idPropuesta, p.votosAFavor, p.cantidadVotos, p.aprobada);\n    }\n\n    function getSocios() public view returns (bytes32[10]) {\n      bytes32[10] memory nombres;\n      for (uint i = 0; i < socios.length; i++) {\n        nombres[i] = stringToBytes32(socios[i].nombre);\n      }\n      return nombres;\n    }\n\n    function stringToBytes32(string memory source) private pure returns (bytes32 result) {\n      bytes memory tempEmptyStringTest = bytes(source);\n      if (tempEmptyStringTest.length == 0) {\n        return 0x0;\n      }\n\n      assembly {\n          result := mload(add(source, 32))\n      }\n    }\n}\n",
  "sourcePath": "/Users/neco/Documents/Universidad/15vo Semestre/Criptomonedas/Proyecto/Consorcio/Proyecto/contracts/Consorcio.sol",
  "compiler": {
    "name": "solc",
    "version": "0.4.23+commit.124ca40d.Emscripten.clang"
  },
  "schemaVersion": "2.0.0",
  "updatedAt": "2018-06-15T09:44:41.185Z"
}