{
  "contractName": "Consorcio",
  "abi": [
    {
      "constant": true,
      "inputs": [
        {
          "name": "",
          "type": "address"
        }
      ],
      "name": "memberId",
      "outputs": [
        {
          "name": "",
          "type": "uint256"
        }
      ],
      "payable": false,
      "stateMutability": "view",
      "type": "function"
    },
    {
      "constant": true,
      "inputs": [
        {
          "name": "",
          "type": "uint256"
        }
      ],
      "name": "members",
      "outputs": [
        {
          "name": "member",
          "type": "address"
        },
        {
          "name": "name",
          "type": "string"
        },
        {
          "name": "memberSince",
          "type": "uint256"
        }
      ],
      "payable": false,
      "stateMutability": "view",
      "type": "function"
    },
    {
      "inputs": [],
      "payable": false,
      "stateMutability": "nonpayable",
      "type": "constructor"
    },
    {
      "anonymous": false,
      "inputs": [
        {
          "indexed": false,
          "name": "member",
          "type": "address"
        },
        {
          "indexed": false,
          "name": "isMember",
          "type": "bool"
        }
      ],
      "name": "MembershipChanged",
      "type": "event"
    },
    {
      "constant": false,
      "inputs": [
        {
          "name": "targetMember",
          "type": "address"
        },
        {
          "name": "memberName",
          "type": "string"
        }
      ],
      "name": "addMember",
      "outputs": [],
      "payable": false,
      "stateMutability": "nonpayable",
      "type": "function"
    },
    {
      "constant": false,
      "inputs": [
        {
          "name": "targetMember",
          "type": "address"
        }
      ],
      "name": "removeMember",
      "outputs": [],
      "payable": false,
      "stateMutability": "nonpayable",
      "type": "function"
    },
    {
      "constant": true,
      "inputs": [],
      "name": "getMembers",
      "outputs": [
        {
          "name": "",
          "type": "bytes32[10]"
        }
      ],
      "payable": false,
      "stateMutability": "view",
      "type": "function"
    }
  ],
  "bytecode": "0x60806040523480156200001157600080fd5b506200003e6000602060405190810160405280600081525062000044640100000000026401000000009004565b620003bd565b60008060008473ffffffffffffffffffffffffffffffffffffffff1673ffffffffffffffffffffffffffffffffffffffff1681526020019081526020016000205490506000811415620000f2576001805490506000808573ffffffffffffffffffffffffffffffffffffffff1673ffffffffffffffffffffffffffffffffffffffff1681526020019081526020016000208190555060018054809190600101620000ef91906200022a565b90505b6060604051908101604052808473ffffffffffffffffffffffffffffffffffffffff168152602001838152602001428152506001828154811015156200013457fe5b906000526020600020906003020160008201518160000160006101000a81548173ffffffffffffffffffffffffffffffffffffffff021916908373ffffffffffffffffffffffffffffffffffffffff1602179055506020820151816001019080519060200190620001a79291906200025f565b50604082015181600201559050507f27b022af4a8347100c7a041ce5ccf8e14d644ff05de696315196faae8cd50c9b836001604051808373ffffffffffffffffffffffffffffffffffffffff1673ffffffffffffffffffffffffffffffffffffffff168152602001821515151581526020019250505060405180910390a1505050565b8154818355818111156200025a57600302816003028360005260206000209182019101620002599190620002e6565b5b505050565b828054600181600116156101000203166002900490600052602060002090601f016020900481019282601f10620002a257805160ff1916838001178555620002d3565b82800160010185558215620002d3579182015b82811115620002d2578251825591602001919060010190620002b5565b5b509050620002e2919062000349565b5090565b6200034691905b808211156200034257600080820160006101000a81549073ffffffffffffffffffffffffffffffffffffffff021916905560018201600062000330919062000371565b600282016000905550600301620002ed565b5090565b90565b6200036e91905b808211156200036a57600081600090555060010162000350565b5090565b90565b50805460018160011615610100020316600290046000825580601f10620003995750620003ba565b601f016020900490600052602060002090810190620003b9919062000349565b5b50565b610b4e80620003cd6000396000f30060806040526004361061006d576000357c0100000000000000000000000000000000000000000000000000000000900463ffffffff1680630b1ca49a1461007257806339106821146100b55780635daf08ca1461010c5780639eab5253146101ec578063c127c2471461023f575b600080fd5b34801561007e57600080fd5b506100b3600480360381019080803573ffffffffffffffffffffffffffffffffffffffff1690602001909291905050506102c8565b005b3480156100c157600080fd5b506100f6600480360381019080803573ffffffffffffffffffffffffffffffffffffffff1690602001909291905050506104cc565b6040518082815260200191505060405180910390f35b34801561011857600080fd5b50610137600480360381019080803590602001909291905050506104e4565b604051808473ffffffffffffffffffffffffffffffffffffffff1673ffffffffffffffffffffffffffffffffffffffff16815260200180602001838152602001828103825284818151815260200191508051906020019080838360005b838110156101af578082015181840152602081019050610194565b50505050905090810190601f1680156101dc5780820380516001836020036101000a031916815260200191505b5094505050505060405180910390f35b3480156101f857600080fd5b506102016105d5565b6040518082600a60200280838360005b8381101561022c578082015181840152602081019050610211565b5050505090500191505060405180910390f35b34801561024b57600080fd5b506102c6600480360381019080803573ffffffffffffffffffffffffffffffffffffffff169060200190929190803590602001908201803590602001908080601f01602080910402602001604051908101604052809392919081815260200183838082843782019150505050505091929192905050506106ef565b005b6000806000808473ffffffffffffffffffffffffffffffffffffffff1673ffffffffffffffffffffffffffffffffffffffff168152602001908152602001600020541415151561031757600080fd5b6000808373ffffffffffffffffffffffffffffffffffffffff1673ffffffffffffffffffffffffffffffffffffffff1681526020019081526020016000205490505b600180805490500381101561044d57600180820181548110151561037957fe5b906000526020600020906003020160018281548110151561039657fe5b90600052602060002090600302016000820160009054906101000a900473ffffffffffffffffffffffffffffffffffffffff168160000160006101000a81548173ffffffffffffffffffffffffffffffffffffffff021916908373ffffffffffffffffffffffffffffffffffffffff160217905550600182018160010190805460018160011615610100020316600290046104329291906108fa565b50600282015481600201559050508080600101915050610359565b60018080805490500381548110151561046257fe5b9060005260206000209060030201600080820160006101000a81549073ffffffffffffffffffffffffffffffffffffffff02191690556001820160006104a89190610981565b6002820160009055505060018054809190600190036104c791906109c9565b505050565b60006020528060005260406000206000915090505481565b6001818154811015156104f357fe5b90600052602060002090600302016000915090508060000160009054906101000a900473ffffffffffffffffffffffffffffffffffffffff1690806001018054600181600116156101000203166002900480601f0160208091040260200160405190810160405280929190818152602001828054600181600116156101000203166002900480156105c55780601f1061059a576101008083540402835291602001916105c5565b820191906000526020600020905b8154815290600101906020018083116105a857829003601f168201915b5050505050908060020154905083565b6105dd6109fb565b6105e56109fb565b60008090505b6001805490508110156106e7576106b960018281548110151561060a57fe5b90600052602060002090600302016001018054600181600116156101000203166002900480601f0160208091040260200160405190810160405280929190818152602001828054600181600116156101000203166002900480156106af5780601f10610684576101008083540402835291602001916106af565b820191906000526020600020905b81548152906001019060200180831161069257829003601f168201915b50505050506108cf565b8282600a811015156106c757fe5b6020020190600019169081600019168152505080806001019150506105eb565b819250505090565b60008060008473ffffffffffffffffffffffffffffffffffffffff1673ffffffffffffffffffffffffffffffffffffffff168152602001908152602001600020549050600081141561079a576001805490506000808573ffffffffffffffffffffffffffffffffffffffff1673ffffffffffffffffffffffffffffffffffffffff168152602001908152602001600020819055506001805480919060010161079791906109c9565b90505b6060604051908101604052808473ffffffffffffffffffffffffffffffffffffffff168152602001838152602001428152506001828154811015156107db57fe5b906000526020600020906003020160008201518160000160006101000a81548173ffffffffffffffffffffffffffffffffffffffff021916908373ffffffffffffffffffffffffffffffffffffffff160217905550602082015181600101908051906020019061084c929190610a1f565b50604082015181600201559050507f27b022af4a8347100c7a041ce5ccf8e14d644ff05de696315196faae8cd50c9b836001604051808373ffffffffffffffffffffffffffffffffffffffff1673ffffffffffffffffffffffffffffffffffffffff168152602001821515151581526020019250505060405180910390a1505050565b600060608290506000815114156108ec57600060010291506108f4565b602083015191505b50919050565b828054600181600116156101000203166002900490600052602060002090601f016020900481019282601f106109335780548555610970565b8280016001018555821561097057600052602060002091601f016020900482015b8281111561096f578254825591600101919060010190610954565b5b50905061097d9190610a9f565b5090565b50805460018160011615610100020316600290046000825580601f106109a757506109c6565b601f0160209004906000526020600020908101906109c59190610a9f565b5b50565b8154818355818111156109f6576003028160030283600052602060002091820191016109f59190610ac4565b5b505050565b61014060405190810160405280600a90602082028038833980820191505090505090565b828054600181600116156101000203166002900490600052602060002090601f016020900481019282601f10610a6057805160ff1916838001178555610a8e565b82800160010185558215610a8e579182015b82811115610a8d578251825591602001919060010190610a72565b5b509050610a9b9190610a9f565b5090565b610ac191905b80821115610abd576000816000905550600101610aa5565b5090565b90565b610b1f91905b80821115610b1b57600080820160006101000a81549073ffffffffffffffffffffffffffffffffffffffff0219169055600182016000610b0a9190610981565b600282016000905550600301610aca565b5090565b905600a165627a7a72305820ea64c02e1e9f44fa6145f1511a297ffa74e08e01884accf650cdab41256a06790029",
  "source": "pragma solidity ^0.4.4;\n\ncontract Consorcio {\n    mapping (address => uint) public memberId;\n    Member[] public members;\n\n    event MembershipChanged(address member, bool isMember);\n\n    struct Member {\n        address member;\n        string name;\n        uint memberSince;\n    }\n\n    // Modifier that allows only shareholders to vote and create new proposals\n    modifier onlyMembers {\n        require(memberId[msg.sender] != 0);\n        _;\n    }\n\n    constructor() public {\n        // It’s necessary to add an empty first member\n        addMember(0, \"\");\n    }\n\n    function addMember(address targetMember, string memberName) public {\n        uint id = memberId[targetMember];\n        if (id == 0) {\n            memberId[targetMember] = members.length;\n            id = members.length++;\n        }\n\n        members[id] = Member({member: targetMember, memberSince: now, name: memberName});\n        emit MembershipChanged(targetMember, true);\n    }\n\n    function removeMember(address targetMember) public {\n      require(memberId[targetMember] != 0);\n\n      for (uint i = memberId[targetMember]; i<members.length-1; i++){\n          members[i] = members[i+1];\n      }\n      delete members[members.length-1];\n      members.length--;\n    }\n\n    function getMembers() public view returns (bytes32[10]) {\n      bytes32[10] memory names;\n      for (uint i = 0; i < members.length; i++) {\n        names[i] = stringToBytes32(members[i].name);\n      }\n      return names;\n    }\n\n    function stringToBytes32(string memory source) private pure returns (bytes32 result) {\n      bytes memory tempEmptyStringTest = bytes(source);\n      if (tempEmptyStringTest.length == 0) {\n        return 0x0;\n      }\n\n      assembly {\n          result := mload(add(source, 32))\n      }\n    }\n}\n",
  "sourcePath": "/Users/neco/Documents/Universidad/15vo Semestre/Criptomonedas/Proyecto/Consorcio/Proyecto/contracts/Consorcio.sol",
  "compiler": {
    "name": "solc",
    "version": "0.4.23+commit.124ca40d.Emscripten.clang"
  },
  "schemaVersion": "2.0.0",
  "updatedAt": "2018-06-12T01:09:41.950Z"
}